:100000003EC158C157C156C155C154C153C152C157
:1000100051C150C180C14EC14EC14CC14BC12452CF
:1000200065766973696F6E3A20312E34332024204F
:1000300024446174653A2032382F30352F32303104
:10004000372032303A34353A31382024004A617250
:10005000206F662046697265666C6965730A44653F
:100060007369676E20616E6420496D706C696D659F
:100070006E746174696F6E2062792058616E646578
:100080007220487564736F6E20286A6172407379BC
:100090006E6F707469632E6F7267290A49646561B7
:1000A00020616E6420496E737069726174696F6E4D
:1000B000206279204B61796F626920546965726EA4
:1000C00065790A4D6F64696669656420666F7220A0
:1000D000757365206279204C756967692050697A6B
:1000E0007A6F6C69746F0A00000103070F1F3F7F6E
:1000F000FF050F20406384A0B3B7A783593E2C208F
:10010000242C364A4A43392F261D15100E11181D6E
:100110001D1A140E06060D121413100B0604040605
:10012000090A0805030407122544709CBAC0B0945C
:1001300073553D2D24242D3A45463B2B1D140F0DA0
:100140000F141718181614110E0B080605070B0BC1
:10015000090705030210346A97B6C0AE7A4A2C1F0D
:100160002E40534B3C2D1F140E10191E1A12080559
:100170000D12110B05030508090602030C234D851A
:10018000AEB8A887603D282532444D432D180D0E8A
:1001900015191916120E0A0604080A09080705049B
:1001A0000405060605040302020105112D5983A367
:1001B000B9C0B48F5F40291F2C374F52493D3024BE
:1001C0001A120E0F171E1D18110904090F13110C16
:1001D000060303060809070302040C1E3D6995B2D5
:1001E000B8AC9474543929242C3A484C4433201226
:1001F0000C0E14181A1815120F0B080505080A0A18
:10020000090806050404050606060505040302029E
:1002100001020E2C5F8DAFC0BA955E3C2326324C96
:1002200053493A2B1E140E10191E1B140B040A11ED
:10023000130E0804040609090402040E254F85ADB7
:10024000B9AC8F6A462D242C3C4B4B3B25140C102B
:10025000161A1916120E0A0705070A0A09070605D3
:10026000040506060605040302020100040910182D
:1002700021292F32312C231A110A050100001124E3
:100280001FBECFE5D1E0DEBFCDBF10E0A0E6B0E0FD
:10029000E4E9F8E002C005900D92AC39B107D9F756
:1002A00020E0ACE9B0E001C01D92A73AB207E1F747
:1002B000BBD1EEC2A5CE1F920F920FB60F921124A2
:1002C0008F939F93899B08C080919F00815080935A
:1002D0009F00811101C089988B9B08C08091A30069
:1002E00081508093A300811101C08B988C990CC020
:1002F00080916200909163000197909363008093D6
:100300006200892B09F48C9A9F918F910F900FBEF8
:100310000F901F9018951F920F920FB60F921124F5
:100320008F939F9388BA80919D009FEF980F909331
:100330009D00811143C0889B0FC08E9B05C080919A
:10034000A000282E8E9811C0212C80919F00882318
:1003500061F08898899A09C0899907C08E9B05C069
:100360008091A000282E8E98889A8A9B0FC08F9B20
:1003700005C08091A200382E8F9811C0312C809139
:10038000A300882361F08A988B9A09C08B9907C0D3
:100390008F9B05C08091A200382E8F988A9A8899E9
:1003A000412C8A99512C889902C08A9B05C0809162
:1003B000A6008D6E882E02C08DEE882E889B0BC005
:1003C000062C27FA420C13F016F004C01EF000941D
:1003D000802001C080288A9B0BC0072C37FA530C61
:1003E00013F016F004C01EF00094802001C0802895
:1003F0009F918F910F900FBE0F901F901895EF92C5
:10040000FF920F931F93CF93DF9300D000D01F92E2
:10041000CDB7DEB7409185005091860080E18C8396
:1004200082E08D8388E0898384E08A8381E08B8306
:10043000F89482E080939F00899A7894DE01149664
:10044000BE016A5F7F4F8D018D918093A6009E0152
:100450002F5F3F4FF90161909F0180E090E0FA012A
:10046000E080F1808E159F05E0F4FA01E280F380D0
:10047000E80EF91EF701E490E092A0008E9A8E9BA0
:100480000EC0E1B5E064E1BDE5B7E77EE5BFE5B7E5
:10049000E062E5BF8895E5B7EF7DE5BFF0CF029656
:1004A000DECF20173107B1F6A617B70769F6F89423
:1004B00081E080939F007894889B0EC081B5806412
:1004C00081BD85B7877E85BF85B7806285BF8895EA
:1004D00085B78F7D85BFF0CF0F900F900F900F9055
:1004E0000F90DF91CF911F910F91FF90EF900895A2
:1004F00020916000309161002115310529F49DEEB5
:1005000082E198BB88BBFDCFA901440F551F37FF7F
:1005100004C097E849279DE1592750936100409313
:100520006000E82FF0E0E851FF4FE4918091600017
:100530008E230895CF93DF93D091640084E0D8DFB9
:10054000C82F84E0D5DFC80FCD0F83E0D1DFC80FFF
:1005500082E0CEDFC80F82E0CBDFC80F83E0C8DFC8
:10056000C81B8C2FDF91CF9108950F931F93CF93CA
:10057000DF9386E0BDDF082F85E0BADF182F84E027
:10058000B7DFD82F83E0B4DFC82F82E0B1DF902F30
:10059000910F965C9D0F9C0F890FDF91CF911F915A
:1005A0000F910895CF93C82F88E0A2DF482F50E025
:1005B0009A01220F331F240F351F232F3327213099
:1005C000310531F02230310531F0C83059F406C020
:1005D000C43021F405C0C13029F002C084E003C05A
:1005E00081E001C088E0CF91089583E081DF9091A0
:1005F0009C00882319F09F5F90939C0090FF02C09D
:1006000080E1089582E0089588E072DFE82FF0E04D
:10061000A4E0F695E795AA95E1F7EE0FFF1FEB59D9
:10062000FF4F808191810895CF93DF9300D01F9277
:10063000CDB7DEB72DE088E190E00FB6F894A8952D
:1006400081BD0FBE21BD81B5806481BD8FEF87BBA9
:100650008DEE88BB80B5886080BD80B5826080BD2E
:1006600080B5816080BD82E08ABD83BF99E199BD7C
:1006700090E80FB6F89496BD86BD0FBE80E189BFA5
:1006800081B5806481BD812C712C612C512C412C51
:10069000312C212C11BA7894B2DE4CDF80939F006C
:1006A00049DF8093A300899A8B9A00E010E01B82B7
:1006B0001A82E12CF12CC12CD12C88E5A82E82E0E5
:1006C000B82E889902C08A9B5DC0889B22C08E99F3
:1006D00020C0D6018D919C9111972A813B812817CA
:1006E0003907B9F02F5F3F4F1296ED91FC911397A8
:1006F0008A819B81E80FF91FE4918091A5006E2FFC
:1007000070E090E0B4D0F8949093A0008E9A789422
:1007100060C08A9B20C08F991EC0D7018D919C918B
:10072000119708171907B9F098012F5F3F4F1296DC
:10073000ED91FC911397E00FF11FE49180919E00E1
:100740006E2F70E090E093D0F8949093A2008F9A6F
:1007500078948901B6CF889B09C080919F00811150
:1007600005C0E8DEF89480939F000AC08A9B0AC007
:100770008091A300811106C0DDDEF8948093A30070
:1007800078949FCF889928C0899926C08E9924C0D3
:100790003BDF6C01872D06DF682EE7DE8093A50026
:1007A000D6011296ED91FC91139764918091A5006A
:1007B00070E090E05CD08B9B05C0998316DF80933E
:1007C000A6009981F8949093A0008E9A789421E0E5
:1007D00030E03B832A8375CF8A9926C08B9924C049
:1007E0008F9922C011DF7C01862DDCDE782EBDDEE4
:1007F00080939E00D7011296ED91FC91139764911E
:1008000080919E0070E090E032D0899B05C0998372
:10081000ECDE8093A6009981F8949093A2008F9AC1
:10082000789401E010E04DCF8C9B0BC085E060DE3A
:10083000885F80936400B0926300A09262008C98FD
:1008400040CF81B5806481BD899B06C08B9B04C06D
:1008500085B7877E806102C085B7877E85BF85B7F3
:10086000806285BF889585B78F7D85BF2ACF00249C
:10087000552704C0080E591F880F991F009729F0AB
:1008800076956795B8F37105B9F7802D952F089582
:04089000F894FFCF0A
:10089400CE741E0002930093009300930093008F84
:1008A400008F008F008F008F008B008B008B0087E0
:1008B400008700870097006300F100560054016729
:0C08C40000AA015A00110213006B020090
:00000001FF
