:10000000FAC114C213C212C211C210C20FC20EC270
:100010000DC20CC23CC20AC20AC208C207C22452A4
:1000200065766973696F6E3A20312E34332024204F
:1000300024446174653A2032382F30352F32303104
:10004000372032303A34353A31382024004A617250
:10005000206F662046697265666C6965730A44653F
:100060007369676E20616E6420496D706C696D659F
:100070006E746174696F6E2062792058616E646578
:100080007220487564736F6E20286A6172407379BC
:100090006E6F707469632E6F7267290A49646561B7
:1000A00020616E6420496E737069726174696F6E4D
:1000B000206279204B61796F626920546965726EA4
:1000C00065790A4D6F64696669656420666F7220A0
:1000D000757365206279204C756967692050697A6B
:1000E0007A6F6C69746F0A00000103070F1F3F7F6E
:1000F000FF022A6379602A0301010101010C192919
:100100003C4D565B647688908F8D92999B99989B15
:100110009A948D8E989F9A8E888D98998F847E7CE4
:10012000786F655C53483B312B261E150F0B080575
:10013000030101000002245E82794F1B01010101CD
:10014000010105101E2D3B47525E6B7782898E930D
:10015000979A9995908D8D8F8F8C86838791A0AB80
:10016000ACA3968D8C919798938A8688939FA5A22D
:10017000988C84818384837F7B7774706960564D0B
:10018000453E362D261F1B17130E0A0604020101D9
:100190000000011A4974837350270801010101010D
:1001A0000101060F1A242F3A46525B62666A6F7786
:1001B00083909A9D9990898689929A9E9C958D8923
:1001C0008A8F979D9E9B9794969A9EA09E999490B5
:1001D00091939696928C858283878C8F908E8D8D4D
:1001E0009095999C9D9D9DA0A4A7A7A199918E8F64
:1001F000959A9B95897C7370747B8080796E635B24
:1002000058585957534B4239322C26221D19141174
:100210000D090704030101000100011B486D796805
:100220003D11010101010101010B1522303C464D38
:1002300056637380878786888D908F8B8A8D939481
:100240008E837B7E8A99A4A6A19C9A9A9997969B65
:10025000A3A9A698887E808B979C99928C88837B93
:10026000736E6E706E645649413E3C3A342E2823BC
:100270001F19140F0B0806040201010000021946A1
:100280007592906F3D1201010101010101010812F7
:100290001C27323C454E555C63696F767E868E9591
:1002A0009B9FA1A09C98928B86817E7D7E81868C6F
:1002B000949BA2A8ABACABA8A39E99959290909268
:1002C00094979A9D9E9E9D9A96918D898685848607
:1002D000888B8F93959696938F8A85807B767371A2
:1002E0006F6D6C6966625C564E463F37302A252139
:1002F0001D191613100D0A07050302010100000164
:100300001F597E77552A06010101010101081625B2
:10031000334048505C6C7A7F7A757C8FA3A79B8BA7
:10032000878E96968D8381858B8F92959896908AED
:100330008A91969389848999A6A79C94959CA19C5F
:10034000938D91989D9C9A9CA1A1988C8583827C89
:1003500072696667655D524A443F372E26201D1933
:10036000140F0B0806040201010000021D517B82DC
:10037000683F1802010101010101040F1A242E3700
:10038000424F5B666D7379838E989B978D858387CB
:1003900090999E9E9A97969594908B888A919BA10E
:1003A000A099908A8B91989C9A948D8A8C91969919
:1003B0009998989A9A968E8681848E9CA8AAA192E2
:1003C000837975747473716E6D6A655C50433A34E9
:1003D000312E2B27211B16120E0B070503010100DE
:1003E0000100000409101821292F32312C231A1181
:1003F0000A050100000011241FBECFE5D1E0DEBFD9
:10040000CDBF10E0A0E6B0E0ECE0FAE002C005905D
:100410000D92A83AB107D9F720E0A8EAB0E001C0F0
:100420001D92A33BB207E1F7BBD1EEC2E9CD1F920B
:100430000F920FB60F9211248F939F93899B08C040
:100440008091AB0081508093AB00811101C08998ED
:100450008B9B08C08091AF0081508093AF008111C9
:1004600001C08B988C990CC08091620090916300C0
:1004700001979093630080936200892B09F48C9A12
:100480009F918F910F900FBE0F901F9018951F9204
:100490000F920FB60F9211248F939F9388BA809179
:1004A000A9009FEF980F9093A900811143C0889BEA
:1004B0000FC08E9B05C08091AC00282E8E9811C075
:1004C000212C8091AB00882361F08898899A09C01B
:1004D000899907C08E9B05C08091AC00282E8E980C
:1004E000889A8A9B0FC08F9B05C08091AE00382EE2
:1004F0008F9811C0312C8091AF00882361F08A98C9
:100500008B9A09C08B9907C08F9B05C08091AE0064
:10051000382E8F988A9A8899412C8A99512C8899DB
:1005200002C08A9B05C08091B2008D6E882E02C0E9
:100530008DEE882E889B0BC0062C27FA420C13F0F8
:1005400016F004C01EF00094802001C080288A9B11
:100550000BC0072C37FA530C13F016F004C01EF032
:100560000094802001C080289F918F910F900FBE32
:100570000F901F901895EF92FF920F931F93CF93B8
:10058000DF9300D000D01F92CDB7DEB74091850039
:100590005091860080E18C8382E08D8388E089839E
:1005A00084E08A8381E08B83F89482E08093AB00BF
:1005B000899A7894DE011496BE016A5F7F4F8D019F
:1005C0008D918093B2009E012F5F3F4FF9016190A2
:1005D0009F0180E090E0FA01E080F1808E159F0598
:1005E000E0F4FA01E280F380E80EF91EF701E490EE
:1005F000E092AC008E9A8E9B0EC0E1B5E064E1BD46
:10060000E5B7E77EE5BFE5B7E062E5BF8895E5B70A
:10061000EF7DE5BFF0CF0296DECF20173107B1F6B0
:10062000A617B70769F6F89481E08093AB00789439
:10063000889B0EC081B5806481BD85B7877E85BFEC
:1006400085B7806285BF889585B78F7D85BFF0CFE0
:100650000F900F900F900F900F90DF91CF911F91FF
:100660000F91FF90EF90089520916000309161000C
:100670002115310529F49DEE82E198BB88BBFDCFA1
:10068000A901440F551F37FF04C097E849279DE192
:1006900059275093610040936000E82FF0E0E85143
:1006A000FF4FE491809160008E230895CF93DF93F4
:1006B000D091640084E0D8DFC82F84E0D5DFC80F74
:1006C000CD0F83E0D1DFC80F82E0CEDFC80F82E01C
:1006D000CBDFC80F83E0C8DFC81B8C2FDF91CF9121
:1006E00008950F931F93CF93DF9386E0BDDF082F0C
:1006F00085E0BADF182F84E0B7DFD82F83E0B4DFBE
:10070000C82F82E0B1DF902F910F965C9D0F9C0F58
:10071000890FDF91CF911F910F910895CF93C82F2B
:1007200088E0A2DF482F50E09A01220F331F240FE8
:10073000351F232F33272130310531F02230310589
:1007400031F0C83059F406C0C43021F405C0C130BE
:1007500029F002C084E003C081E001C088E0CF91AD
:10076000089583E081DF9091A800882319F09F5FAE
:100770009093A80090FF02C080E1089582E0089560
:1007800088E072DFE82FF0E0A4E0F695E795AA95FF
:10079000E1F7EE0FFF1FEB59FF4F80819181089524
:1007A000CF93DF9300D01F92CDB7DEB72DE088E165
:1007B00090E00FB6F894A89581BD0FBE21BD81B51C
:1007C000806481BD8FEF87BB8DEE88BB80B588606C
:1007D00080BD80B5826080BD80B5816080BD82E0D3
:1007E0008ABD83BF99E199BD90E80FB6F89496BD94
:1007F00086BD0FBE80E189BF81B5806481BD812C3B
:10080000712C612C512C412C312C212C11BA789453
:10081000B2DE4CDF8093AB0049DF8093AF00899A52
:100820008B9A00E010E01B821A82E12CF12CC12C83
:10083000D12C88E5A82E82E0B82E889902C08A9B28
:100840005DC0889B22C08E9920C0D6018D919C915D
:1008500011972A813B8128173907B9F02F5F3F4F45
:100860001296ED91FC9113978A819B81E80FF91FF5
:10087000E4918091B1006E2F70E090E0B4D0F894D4
:100880009093AC008E9A789460C08A9B20C08F9918
:100890001EC0D7018D919C91119708171907B9F0C7
:1008A00098012F5F3F4F1296ED91FC911397E00F47
:1008B000F11FE4918091AA006E2F70E090E093D038
:1008C000F8949093AE008F9A78948901B6CF889B64
:1008D00009C08091AB00811105C0E8DEF8948093D7
:1008E000AB000AC08A9B0AC08091AF00811106C08C
:1008F000DDDEF8948093AF0078949FCF889928C06C
:10090000899926C08E9924C03BDF6C01872D06DFB4
:10091000682EE7DE8093B100D6011296ED91FC912E
:10092000139764918091B10070E090E05CD08B9B54
:1009300005C0998316DF8093B2009981F894909353
:10094000AC008E9A789421E030E03B832A8375CF07
:100950008A9926C08B9924C08F9922C011DF7C010F
:10096000862DDCDE782EBDDE8093AA00D70112969C
:10097000ED91FC91139764918091AA0070E090E052
:1009800032D0899B05C09983ECDE8093B2009981B7
:10099000F8949093AE008F9A789401E010E04DCFD8
:1009A0008C9B0BC085E060DE885F80936400B09212
:1009B0006300A09262008C9840CF81B5806481BDB5
:1009C000899B06C08B9B04C085B7877E806102C06F
:1009D00085B7877E85BF85B7806285BF889585B7D7
:1009E0008F7D85BF2ACF0024552704C0080E591FCC
:1009F000880F991F009729F076956795B8F37105D0
:0C0A0000B9F7802D952F0895F894FFCFD2
:100A0C00CE741E00029F009B009B009700970097DE
:100A1C0000930093008F008F008F008B008B00875A
:100A2C000087008700A3004400F1005D00350188B9
:100A3C0000920163001A0282007D026C00FF0277B3
:080A4C00006B031300E203003C
:00000001FF
